:020000020000FC
:1000000000C01FE524E02EBF1DBF91D098D0A4D022
:10001000AAD0BDD0979AC4D0093CE9F7969A06E3D6
:10002000C3D0BED0102FF1E0E0E000833196702FF6
:100030000DE6BAD0B5D0B02E0DE6B6D0172FB0D0A1
:100040000193AED001931A95D0F70DE6ADD0F1E053
:10005000E1E09927882734E0C098172FA191B1914A
:10006000662477249DD0C02E02E06ED0092F6CD07C
:10007000082F6AD00C2D68D001960DE695D0A150BE
:10008000B04080F78827930F1A9540F7C09A88D020
:100090000D36E9F79698959ABB24CC24B5BA22E0A0
:1000A00064E040E054E073E0AB2C0BE90A95F0F714
:1000B000AA94D8F7F1E0E1E02C9DE00DF11DA191AB
:1000C000B1913297269FE00DF11D719061902D0145
:1000D000461821F4570811F4662477245C9D202CDF
:1000E0004C9D210CC001860D971DC09803E02CD0BB
:1000F000092F2AD0082F28D02BD0C09AC5BAAD9A84
:1001000000000000000000000000000000001CD003
:10011000AD9801E0600E00E0701E3297619271921E
:10012000C394C72208F6C19A0000C198BDCF1FE34F
:1001300014BB1FE217BB1EEE11BBF89408951FE21B
:1001400017BB10E51DB908950FB9779BFECF089531
:100150000027FADF0FB10895C09801E0F5DF03E052
:10016000F3DFC09A0895C09874E08827992714E0B7
:10017000190F02E0E9DF092FE7DF082FE5DF00278D
:10018000E3DF01961917A9F77A9589F7089510E02A
:1001900003E310BD09B90EE800BD08E10AB90895EE
:1001A0005F9BFECF0CB108955D9BFECF5E9BFECFA3
:0401B0000CB90895E9
:00000001FF
