:020000020000FC
:1000000012C025C038C022C021C020C01FC01EC0E1
:100010001DC01CC01BC01AC019C018C017C016C014
:1000200015C014C013C01FED1DBF17E417BB10E7A8
:1000300012BB18E11DB91BE515BF10EC1BBF112742
:1000400010BDC098C198C2987894FFCF1895949A23
:1000500027FDC09A26FDC29A2F73C19A00000000A6
:100060000000C198000000002A95B9F7C098C19817
:10007000C2989498189500270FB9769A969A76990F
:10008000FECF0FB1202F969818950FB9769A7699D2
:06009000FECF0FB1089540
:00000001FF
